:100000000C9437000C9401060C9401060C94010624
:100010000C9401060C9401060C9401060C94010644
:100020000C9401060C9401060C9401060C94010634
:100030000C9401060C9401060C9401060C94010624
:100040000C9401060C9401060C9401060C94010614
:100050000C9401060C9401060C9401060C94010604
:100060000C9401060C94010601000101800011248A
:100070001FBECFEFD8E0DEBFCDBFE8E6F0E040E046
:1000800017C0B591A59135912591059107FD0CC03B
:1000900095918591EF01F92FE82F05900D92A21708
:1000A000B307D9F7FE0104C01D92A217B307E1F709
:1000B000ED36F40731F70E94E5030C94DE05F89461
:0200C000FFCF70
:1000C2009302D000EE01D0000B02D0004B02D00010
:1000D2000B02D000EE01D000B801A001B801D0009F
:1000E2000B02D0009302D0004B02D0000B02D000D2
:1000F200EE01A001EE01D0000000D0000B02D00002
:100102004B02D0009302A0010B02D000B801D00034
:10011200B801A0010000D0004B02D000BA02D0000A
:100122007003A0011003D000BA02D0009302A00114
:100132000B02D0009302D0004B02A0010B02D000B0
:10014200EE01D000EE01A0010B02D0004B02D00064
:100152009302A0010B02D000B801D000B801A001A7
:100162000000D0009302D0000B02D0004B02D0005E
:10017200EE01A0010B02D000B801D0008801A0015D
:100182000000D0009302D0000B02D0004B02D0003E
:10019200EE01A0010B02D0009302D0007003A00177
:1001A2001003D000BA02D0004B02A001BA02D00064
:1001B200930271020B02D0004B02D0009302D000D6
:1001C2000B02D000B801D000B801A0010000D0009D
:1001D2004B02D000BA02D0007003A0011003D0007D
:1001E200BA02D0009302A0010B02D0009302D00009
:1001F2004B02A0010B02D000EE01D000EE01410340
:040202000000A00157
:100206004D0A96004D0A9600000096004D0A96008B
:10021600000096002D0896004D0A960000009600F4
:10022600400C960000002C012006960000002C01D0
:100236002D08960000002C012006960000002C01D7
:100246002705960000002C01E006960000009600A7
:10025600B80796000000960049079600E00696004B
:10026600200696004D0A9600400C9600C00D96009A
:1002760000009600EA0A9600400C960000009600E0
:100286004D0A9600000096002D0896002D0996004E
:10029600B807960000002C012D08960000002C01DE
:1002A6002006960000002C012705960000002C0170
:1002B600E006960000009600B8079600000096003B
:1002C60049079600E0069600200696004D0A96001D
:0C02D600400C9600C00D960000002C01AA
:1002E200436F6D616E646F733A2050203D205069F8
:1002F200616E6F207C2031203D204D6172696F203C
:100302007C2032203D20546574726973207C205316
:10031200203D205061757361207C2048203D2043A0
:100322006F6D616E646F73005B4D6F646F5D205023
:1003320069616E6F005B4D6F646F5D2043616E6338
:10034200696F6E203120284D6172696F29005B4D03
:100352006F646F5D2043616E63696F6E2032202887
:1003620054657472697329005B4D6F646F5D205030
:1003720061757361004D6F646F20696E69636961B5
:090382006C3A205069616E6F00B5
:10038C002F923F924F925F926F928F929F92AF9269
:10039C00BF92CF92DF92EF92FF920F931F93CF9366
:1003AC00DF9300D000D0CDB7DEB72B01682E5A8377
:1003BC00498348015901C12CD12C7601CCC18091C3
:1003CC000001813029F080910001823009F0C3C115
:1003DC00C101880F991F880F991F462D9201280F74
:1003EC00391F411D97FD4A95A42FC9012E5F3F4F20
:1003FC004F4FF901542F0E94F2058B01B701A60152
:10040C00400F511F611D711D84169506A606B70677
:10041C0018F484010C191D09FC015A2F0E94F205D5
:10042C006115710521F00115110509F049C0E1E8CC
:10043C00F0E08081887F8083E0E8F0E080818F733A
:10044C008083109289001092880085B18D7F85B9C8
:10045C00C8012EC08091C000882324F48091C6006E
:10046C000E94FB0480910001813029F080910001F1
:10047C00823009F050C180910001833089F4E1E8A9
:10048C00F0E08081887F8083E0E8F0E080818F73EA
:10049C008083109289001092880085B18D7F85B978
:1004AC008FE99FE00197F1F700C000008B819C81E0
:1004BC009C01215031093C832B83892B59F62BC18C
:1004CC0080910001813029F080910001823009F087
:1004DC0022C16115710591F4E1E8F0E08081887F1B
:1004EC008083E0E8F0E080818F7380831092890034
:1004FC001092880085B18D7F85B941C0CB01A0E0F9
:10050C00B0E0880F991FAA1FBB1F880F991FAA1F45
:10051C00BB1F9C01AD01220F331F441F551F60E010
:10052C0074E284EF90E00E949905DA01C901019709
:10053C00A109B109009731E0A307B10520F08FEFB5
:10054C009FEFA0E0B0E09093870080938600B69573
:10055C00A795979587959093890080938800E0E8FC
:10056C00F0E080818068808380818F7B8083E1E8EC
:10057C00F0E08081887F8083808182608083073077
:10058C00110508F4AFC0C80104972DC08091C000BC
:10059C00882324F48091C6000E94FB048091000102
:1005AC00813021F080910001823021F58091000191
:1005BC00833089F4E1E8F0E08081887F8083E0E893
:1005CC00F0E080818F7380831092890010928800F4
:1005DC0085B18D7F85B98FE99FE00197F1F700C058
:1005EC0000008B819C819C01215031093C832B8321
:1005FC00892B61F6E1E8F0E08081887F8083E0E878
:10060C00F0E080818F7380831092890010928800B3
:10061C0085B18D7F85B984E090E02EC08091C000BB
:10062C00882324F48091C6000E94FB048091000171
:10063C00813029F080910001823009F06CC08091EA
:10064C000001833089F4E1E8F0E08081887F8083C9
:10065C00E0E8F0E080818F73808310928900109223
:10066C00880085B18D7F85B98FE99FE00197F1F7FF
:10067C0000C000008B819C819C01215031093C837E
:10068C002B83892B59F647C08091C000882324F412
:10069C008091C6000E94FB0480910001813021F002
:1006AC0080910001823031F580910001833089F412
:1006BC00E1E8F0E08081887F8083E0E8F0E08081F1
:1006CC008F738083109289001092880085B18D7F82
:1006DC0085B98FE99FE00197F1F700C000008B818D
:1006EC009C8101C0C8019C01215031093C832B83A2
:1006FC00892B51F6E1E8F0E08081887F8083E0E887
:10070C00F0E080818F7380831092890010928800B2
:10071C0085B18D7F85B980910001813021F0809168
:10072C0000018230C1F4C00ED11EE11CF11C3FEF60
:10073C00231A330A05C0212C312C02C0212C312C58
:10074C0089819A812816390630F4C814D904EA0430
:10075C00FB0408F434CEC814D904EA04FB0440F4B6
:10076C0080910001813039F380910001823031F3A6
:10077C00E1E8F0E08081887F8083E0E8F0E0808130
:10078C008F738083109289001092880085B18D7FC1
:10079C0085B90F900F900F900F90DF91CF911F9113
:1007AC000F91FF90EF90DF90CF90BF90AF909F9004
:0E07BC008F906F905F904F903F902F90089518
:1007CA0060E875E280E090E00E94700584B1826082
:1007DA0084B9A0E8B0E082E08C93E1E8F0E088E137
:1007EA0080838C918F738C938081887F8083109211
:1007FA00870010928600109289001092880085B1B5
:10080A008D7F85B90E94D1051092000162EE72E0D7
:10081A0080E00E94E90567E773E080E00E94E9054D
:10082A008091C000882324F48091C6000E94FB04B2
:10083A00809100018111A2C00E944505EC01892B1B
:10084A0009F48AC08FEF9CE70197F1F700C0000016
:10085A000E944505C817D90719F7209791F4E1E8CE
:10086A00F0E08081887F8083E0E8F0E080818F7308
:10087A008083109289001092880085B18D7F85B996
:10088A0054C0CE01A0E0B0E0880F991FAA1FBB1F79
:10089A00880F991FAA1FBB1F9C01AD01220F331F8E
:1008AA00441F551F60E074E284EF90E00E949905AE
:1008BA00DA01C9010197A109B109009721E0A2074C
:1008CA00B10520F08FEF9FEFA0E0B0E09093870092
:1008DA0080938600B695A7959795879590938900FA
:1008EA0080938800E0E8F0E08081806880838081DE
:1008FA008F7B8083E1E8F0E08081887F808380813C
:10090A008260808312C08091C000882344F4809161
:10091A00C6000E94FB048091000181110BC08FE385
:10092A009FE10197F1F700C000000E944505C81732
:10093A00D90749F3E1E8F0E08081887F8083E0E825
:10094A00F0E080818F738083109289001092880072
:10095A0085B18D7F85B964CFE1E8F0E08081887F39
:10096A008083E0E8F0E080818F73808310928900B1
:10097A001092880085B18D7F85B952CF8091000190
:10098A00813061F408E91AE320E030E047E350E0FF
:10099A0066E072E080E00E94C60142CF80910001C9
:1009AA00823061F408E91AE320E030E041E550E0E2
:1009BA0062EC70E080E00E94C60132CFE1E8F0E02C
:1009CA008081887F8083E0E8F0E080818F73808374
:1009DA00109289001092880085B18D7F85B98FE3C6
:0C09EA009FE10197F1F700C000001ACF58
:1009F600883411F0883631F462EE72E080E00E94AD
:100A0600E9050895803511F0803741F41092000110
:100A16006AE273E080E00E94E9050895813349F4B3
:100A260081E08093000167E373E080E00E94E905BE
:100A36000895823349F482E08093000160E573E013
:100A460080E00E94E9050895833511F08337C9F4E3
:100A560083E080930001E1E8F0E08081887F808375
:100A6600E0E8F0E080818F73808310928900109215
:100A7600880085B18D7F85B96AE673E080E00E94C3
:040A8600E9050895E1
:100A8A00309B11C0319B12C0329B13C0339B14C0E0
:100A9A004A9B15C04B9B16C04C9B17C04D9918C05A
:100AAA008BE092E0089586E091E0089586E291E075
:100ABA0008958AE491E008958DE591E0089588E823
:100ACA0091E0089588EB91E008958EEE91E0089503
:060ADA0080E090E00895A9
:100AE000DC01CB01880F991FAA1FBB1F880F991F1C
:100AF000AA1FBB1F9C01AD01220F331F441F551FAE
:100B0000220F331F441F551F60E074E284EF90E012
:100B10000E949905215031093093C5002093C400EB
:100B20001092C00088E18093C10086E08093C200EB
:020B3000089526
:100B3200A1E21A2EAA1BBB1BFD010DC0AA1FBB1FDF
:100B4200EE1FFF1FA217B307E407F50720F0A21B51
:100B5200B30BE40BF50B661F771F881F991F1A94BE
:100B620069F760957095809590959B01AC01BD01E8
:040B7200CF01089512
:100B7600CF92DF92EF926B01E82E06C09FEFC91A63
:100B8600D90AE90A0E94FA05F6018491E7FC8081F8
:0C0B96008111F4CFEF90DF90CF90089514
:100BA20087B1807F87B988B18F6088B98AB1837C29
:0A0BB2008AB98BB18C638BB90895EA
:100BBC00EC010E9406060E940506CE010E94070663
:060BCC00CE010E940306A9
:100BD2000E94BB058DE00E94FA058AE00E94FA0598
:020BE200089574
:100BE40057FD03C0659175910895619171910895C0
:0E0BF4009091C00095FFFCCF8093C60008953D
:040C02000C9400004E
:040C06000E945F00E9
:020C0A0008954B
:020C0C00089549
:020C0E00089547
:00000001FF
